:1000000012C02CC02BC02AC029C028C027C026C0BF
:1000100025C024C023C022C021C020C01FC01EC0D4
:100020001DC01CC01BC011241FBECFE5D4E0DEBF25
:10003000CDBF10E0A0E6B0E0E8E8F0E002C0059037
:100040000D92A036B107D9F710E0A0E6B0E001C0EC
:100050001D92A036B107E1F70AD014C0D1CF5D9B45
:10006000FECF8CB908955F9BFECF8CB108958FE2CF
:1000700089B988E18AB95F9BFECF8CB15D9BFECFC9
:080080008CB9F9CFF894FFCF11
:00000001FF
