:1000000002C11CC11BC11AC119C118C117C116C137
:1000100015C114C113C112C111C110C10FC10EC14C
:100020000DC10CC10BC1000000000000005F00000A
:100030000007000700147F147F14242A7F2A12234C
:100040001308646236495522500005030000001C65
:100050002241000041221C00082A1C2A0808083EF0
:100060000808005030000008080808080060600018
:100070000020100804023E5149453E00427F4000E6
:1000800042615149462141454B311814127F1027D6
:10009000454545393C4A494930017109050336490E
:1000A000494936064949291E0036360000005636B1
:1000B00000000008142241141414141441221408DE
:1000C000000201510906324979413E7E1111117E2B
:1000D0007F494949363E414141227F4141221C7FAF
:1000E000494949417F090901013E414151327F0897
:1000F00008087F00417F41002040413F017F0814F4
:1001000022417F404040407F0204027F7F0408106C
:100110007F3E4141413E7F090909063E4151215E32
:100120007F09192946464949493101017F01013FAB
:100130004040403F1F2040201F7F2018207F631435
:100140000814630304780403615149454300007FA8
:100150004141020408102041417F000004020102D5
:1001600004404040404000010204002054545478B0
:100170007F484444383844444420384444487F3815
:1001800054545418087E090102081454543C7F0842
:1001900004047800447D40002040443D00007F106E
:1001A000284400417F40007C041804787C08040443
:1001B0007838444444387C14141408081414187C07
:1001C0007C080404084854545420043F4440203C14
:1001D0004040207C1C2040201C3C4030403C4428B7
:1001E0001028440C5050503C4464544C4400083691
:1001F000410000007F0000004136080008082A1C6A
:1002000008081C2A080811241FBECFE5D4E0DEBF71
:10021000CDBF10E0A0E6B0E0E0E0F3E002C0059062
:100220000D92A037B107D9F710E0A0E7B0E001C008
:100230001D92A037B107E1F702D060C0E1CEAF92C6
:10024000BF92DF92EF92FF920F931F93DF93CF93B2
:10025000CDB7DEB72F970FB6F894DEBF0FBECDBF78
:100260008FE184BB8FE781BBDE011196E0E6F0E011
:100270008FE001900D928150E1F780E090E05E0107
:100280000894A11CB11C35E0D32E21E0E22EF12C04
:100290000AEF10E01FC015BAD701022E02C0AA0F44
:1002A000BB1F0A94E2F7A5BBA491A095A2BBD801FD
:1002B0001197F1F72F5F3F4F31962530310559F7F0
:1002C0006F5F7F4F6C33710521F0FA0120E030E061
:1002D000E2CF0196F501E80FF91F4081382F292F51
:1002E00080E090E04423B1F3832F922F4D9DA00135
:1002F000112460E070E04A575040E7CFF894FFCFF8
:10030000202020486F6C61207669746568210000A8
:00000001FF
