:100000000CC027C026C025C024C023C022C021C0E8
:1000100020C01FC01EC01DC01CC011241FBECFE5C4
:10002000D2E0DEBFCDBF10E0A0E6B0E0EAE0F1E054
:1000300003C0C89531960D92A036B107D1F710E0F4
:10004000A0E6B0E001C01D92A036B107E1F753D0A1
:100050005AC0D6CF21E030E0A90102C0440F551F9D
:100060008A95E2F745BB02C0220F331F6A95E2F77B
:10007000209522BB08950F931F93CF93DF93C1E088
:10008000D0E0A1E0B0E02FEF3FEF8FEF9FEF41E036
:1000900050E000E513EC8A0F9B1F2C0F3D1FBA01A7
:1000A000082E02C0660F771F0A94E2F765BBBA01FB
:1000B000022E02C0660F771F0A94E2F7609562BBBA
:1000C000F8013197F1F78430910569F0009711F448
:1000D000A1E0B0E02630310559F021153105D9F6FF
:1000E000C2E0D0E0D8CFAFEFBFEF26303105A9F79F
:1000F000CFEFDFEFD0CF8FE184BB8FE781BBBBDFDA
:0A01000080E090E00895F894FFCF2E
:00000001FF
