:1000000012C02CC02BC02AC029C028C027C026C0BF
:1000100025C024C023C022C021C020C01FC01EC0D4
:100020001DC01CC01BC011241FBECFE5D4E0DEBF25
:10003000CDBF10E0A0E6B0E0ECE6F1E002C0059034
:100040000D92A036B107D9F710E0A0E6B0E001C0EC
:100050001D92A036B107E1F77FD086C0D1CF21E055
:1000600030E0A90102C0440F551F8A95E2F745BB55
:1000700002C0220F331F6A95E2F7209522BB089534
:10008000CF93DF9361E070E041E050E02FEF3FEF6E
:100090008FEF9FEFE1E0F0E0C4EDD0E302C06FEF3F
:1000A0007FEF840F951F260F371FDF01082E02C038
:1000B000AA0FBB1F0A94E2F7A5BBDF01022E02C004
:1000C000AA0FBB1F0A94E2F7A095A2BBDE0111970D
:1000D000F1F78430910519F44FEF5FEF04C00097FA
:1000E00011F441E050E026303105C9F22115310507
:1000F000C1F662E070E0D5CF1F9380E090E061E050
:1001000070E0A9E1B0E01CC0AB01022E02C0440FB8
:10011000551F0A94E2F745BB12BB48EB5BE0FD01BB
:100120003197F1F741505040D1F72F5F3F4F2530C5
:10013000310551F701968730910514F080E090E089
:100140009B01082E02C0220F331F0A94E2F7122FE0
:10015000109520E030E0D8CF8FE184BB8FE781BBE2
:0C0160008FDF80E090E00895F894FFCF5E
:00000001FF
