:100000000CC027C026C025C024C023C022C021C0E8
:1000100020C01FC01EC01DC01CC011241FBECFE5C4
:10002000D2E0DEBFCDBF10E0A0E6B0E0EEEDF0E044
:1000300003C0C89531960D92A036B107D1F710E0F4
:10004000A0E6B0E001C01D92A036B107E1F702D0F2
:1000500044C0D6CF87E084BB28E833E161E089E182
:1000600090E052E044E02115310509F030C065BB55
:1000700028E833E1FC013197F1F721503040D1F706
:1000800015BA28E833E1FC013197F1F721503040EF
:10009000D1F755BB28E833E1FC013197F1F7215046
:1000A0003040D1F715BA28E833E1FC013197F1F778
:1000B00021503040D1F745BB28E833E1FC013197AE
:1000C000F1F721503040D1F715BA28E833E1FC01AF
:0E00D0003197F1F721503040C6CFF894FFCFA2
:00000001FF
