:1000000012C02CC02BC02AC029C028C027C026C0BF
:1000100025C024C023C022C021C020C01FC01EC0D4
:100020001DC01CC01BC011241FBECFE5D4E0DEBF25
:10003000CDBF10E0A0E6B0E0ECE0F1E002C005903A
:100040000D92A036B107D9F710E0A0E6B0E001C0EC
:100050001D92A036B107E1F702D056C0D1CF1F9351
:1000600087E084BB89E190E011E0B2E0A4E073E0B6
:1000700065E056E047E015BA20E137E2FC01319730
:10008000F1F721503040D1F715BB28E833E1FC01EE
:100090003197F1F721503040D1F7B5BB28E833E173
:1000A000FC013197F1F721503040D1F7A5BB20E199
:1000B00037E2FC013197F1F721503040D1F775BBA1
:1000C00028E833E1FC013197F1F721503040D1F7B6
:1000D00065BB28E833E1FC013197F1F7215030404E
:1000E000D1F755BB20E137E2FC013197F1F7215000
:1000F0003040D1F745BB20E137E2FC013197F1F701
:0C01000021503040D1F7B7CFF894FFCF6A
:00000001FF
