:1000000012C02CC02BC02AC029C028C027C026C0BF
:1000100025C024C023C022C021C020C01FC01EC0D4
:100020001DC01CC01BC011241FBECFE5D4E0DEBF25
:10003000CDBF10E0A0E6B0E0E6E9F0E002C0059038
:100040000D92A036B107D9F710E0A0E6B0E001C0EC
:100050001D92A036B107E1F702D01BC0D1CF82E0DC
:1000600087BB88E893E142E029E130E004C0F90170
:100070003197F1F701970097D1F748BB88E893E1F2
:10008000F9013197F1F70197D9F718BA88E893E1A8
:06009000EECFF894FFCF53
:00000001FF
