:100000000CC027C026C025C024C023C022C021C0E8
:1000100020C01FC01EC01DC01CC011241FBECFE5C4
:10002000D2E0DEBFCDBF10E0A0E6B0E0EAE8F0E04D
:1000300003C0C89531960D92A036B107D1F710E0F4
:10004000A0E6B0E001C01D92A036B107E1F702D0F2
:100050001AC0D6CF82E087BB88E893E142E029E16D
:1000600030E0009759F448BB88E893E1F9013197F3
:10007000F1F70197D9F718BA88E893E1F9013197B8
:0A008000F1F70197EECFF894FFCFDF
:00000001FF
