:1000000023C03EC03CC03BC03AC039C07EC037C0F0
:1000100036C035C034C033C032C031C030C02FC04C
:100020002EC02DC02CC045464765666700202B2D8D
:100030002E303132333435363738396800636469ED
:100040006E6F70737578580011241FBECFE5D4E031
:10005000DEBFCDBF11E0A0E6B0E0E2E1FDE002C00E
:1000600005900D92AA30B107D9F711E0AAE0B1E0EE
:1000700001C01D92AC38B107E1F780D048C6C0CFAF
:100080001F920F920FB60F9211242F933F938F93CD
:100090009F93EF93FF9380910A0190910B0100973A
:1000A00051F48EB582608EBD10920D0110920C013C
:1000B00081E090E015C0209108013091090182177C
:1000C00093079CF4FC01EE0FFF1FE45FFE4F2091AD
:1000D0008401309185012F5F3F4F3183208301964A
:1000E00090930B0180930A0105C08EB58D7F8EBD64
:1000F0001DBC1CBCFF91EF919F918F913F912F915F
:100100000F900FBE0F901F9018951F920F920FB671
:100110000F9211248F939F93809184019091850178
:10012000019690938501809384019F918F910F9008
:100130000FBE0F901F9018955F9BFECF8BB18871FB
:1001400019F02FEF3FEF07C02CB12D3019F42AE042
:1001500030E001C030E0C90108951F93182F8A30A4
:1001600031F460918801709189018DE0F6DF5D9B2B
:10017000FECF1CB980E090E01F9108952F923F922E
:100180004F925F926F927F928F929F92AF92BF92A7
:10019000CF92DF92EF92FF920F931F93DF93CF9353
:1001A00000D000D000D0CDB7DEB788E18AB98CE0AE
:1001B00089B98AEF90E090938B0180938A019093A4
:1001C000890180938801909387018093860184E060
:1001D00082BB82E085BF80E48BBF80E189BF88E07D
:1001E0008EBD8CE790E09BBD8ABD7894EEE6AE2E86
:1001F000E0E0BE2E72EAC72E70E0D72E6DED862E9F
:1002000060E0962E56EA652E50E0752E4CE3E42E03
:10021000F12C8E010D5F1F4F8AE090E0A7D480E69D
:1002200090E0AAD400D000D0ADB7BEB71296BC9271
:10023000AE921197809108019091090114969C93B8
:100240008E93139781D40F900F900F900F908FE89B
:1002500090E092D400D0EDB7FEB7D282C18274D4C0
:100260000F900F908091860190918701CFD38237B4
:10027000910509F46CC08637910509F481C0833675
:10028000910509F0A7C000D000D0ADB7BEB7129657
:100290007C926E9211971496FC92EE92139754D41E
:1002A0000F900F900F900F90409186015091870111
:1002B000C80164E070E0EBD300D000D000D0EDB70F
:1002C000FEB73196ADB7BEB712961C930E93119739
:1002D00046EB50E05383428381E090E08C0F9D1FFA
:1002E0009583848381D489819A819C0121503040F7
:1002F000ADB7BEB716960FB6F894BEBF0FBEADBF72
:100300002C33310528F490930901809308011FC014
:1003100000D000D000D0EDB7FEB7319649EB50E0E9
:10032000ADB7BEB712965C934E931197809184013E
:100330009091850193838283F582E48205D48DB701
:100340009EB706960FB6F8949EBF0FBE8DBF8EB5B2
:100350008D7F8EBD1DBC1CBCECE0F1E080E090E028
:1003600003C01192119201968C339105D4F310922F
:100370000B0110920A0110928501109284014CCF5A
:100380008AE090E0F3D33CE0232E31E0332E442486
:10039000552418C000D000D0ADB7BEB712969C92BD
:1003A0008E921197F101819191911F0114969C9366
:1003B0008E931397C9D30894411C511C0F900F9032
:1003C0000F900F90809108019091090148165906ED
:1003D0000CF322CF81EE90E0CFD31ECFADE0B0E0A2
:1003E000E3EFF1E0CDC26C014B018A01FC01178201
:1003F0001682838181FD06C02FEF3FEF04C10E5F9F
:100400001F4F04C05E010894A11CB11CF601F380CB
:10041000F401F3FC8591F3FE81914F01882309F4E7
:10042000EFC0853251F4F3FC2591F3FE21914F0189
:10043000253211F030E01EC085E290E030C022236A
:1004400009F4DEC08DE290E0622F70E02C873D87DA
:10045000D2D22C853D85009739F4233211F43061D6
:1004600003C02C3661F43068F401F3FC2591F3FEEF
:1004700021914F0137FFE3CF222309F4C1C0F32EAE
:1004800086E290E0622F70E02C873D87B4D22C8505
:100490003F2D009739F00C5F1F4F8FE390E0B601BE
:1004A00027D3B4CF233629F0233789F02335F9F445
:1004B0000CC032E0E32EF12CE00EF11EF801808139
:1004C0009181B60115D38701A1CFF1E0FF2AF80190
:1004D0006080718003C090E0B6010AD3F301F0FCA4
:1004E0008591F0FE81913F018823A9F788CF2436BA
:1004F00011F0293629F537FF08C0F80160817181B4
:10050000828193810C5F1F4F09C0F8016081718166
:10051000882777FD8095982F0E5F1F4F2FEEF22EC4
:10052000F32297FF09C090958095709561957F4F54
:100530008F4F9F4FF0E4FF2AA5012AE030E035C03D
:100540002037B1F0213730F42835C9F02F3609F0C3
:1005500057C006C0253739F0283709F051C00AC006
:1005600028E030E010C02FEEF2222AE030E00BC08D
:1005700080E1F82AE4E2FE2A20E130E004C0F4E061
:10058000FF2A20E132E0F7FE08C0F80160817181A6
:10059000828193810C5F1F4F07C0F80160817181D8
:1005A00080E090E00E5F1F4FA50150D3E82EEA18BF
:1005B0006F2C7724F6FE04C08DE290E0B60198D24D
:1005C00064FE13C0FE01EE0DF11D8081803369F0E1
:1005D00080E390E0B6018CD262FE07C0C301807256
:1005E0009070885A9F4FB60183D2EA94F501EE0DC0
:1005F000F11D808190E0B6017BD2EE20B1F706CFED
:10060000F60126813781C9012D96EEE0D5C120FD86
:1006100009C0FC0123FD05C022FF02C07383628371
:10062000518340830895EF92FF920F931F9344FFED
:1006300002C033E011C046FF02C034E00DC0DB0150
:10064000FC01AA0FBB1FEE1FFF1F1094D1F76A0F0A
:100650007B1F8E1F9F1F31E0660F771F881F991F1A
:100660003150D1F77B018C01E20EF11C011D111DEF
:10067000A8019701B701CA011F910F91FF90EF9058
:100680000895EF92FF920F931F93CF93DF938C0106
:10069000C801BCD1EC0197FD07C0A5D10097C1F7F7
:1006A0007E01CE01B801B7D2CE01CDB7DEB7E6E00C
:1006B0008BC1A0E0B0E0EEE5F3E066C1EC01062FEF
:1006C0007A01122FA3D18B3219F08D3241F41068C8
:1006D000015009F459C0CE0199D197FD55C01D7F35
:1006E000212F2073B9F48033A9F40150C9F1CE0150
:1006F0008DD197FD35C01260883711F0883541F4EF
:100700001064015069F1CE0181D199231CF428C0F5
:1007100016FF1061AA24BB246501282F205328301E
:1007200078F014FD09C02A3058F016FF05C02F7D5F
:10073000322F3151363018F0BE016DD20EC0275025
:10074000C601B501412F6FDF5B016C0112600150E2
:1007500051F0CE015BD197FFE0CF11FD04C014C072
:10076000AA24BB24650117FF08C0D094C094B0949C
:10077000A094A11CB11CC11CD11CC701B601A501CC
:10078000212F45DF81E001C080E0CDB7DEB7EAE090
:1007900017C1A1E0B0E0EEECF3E0F0C07C012B016A
:1007A0006A01FC011782168200E0D0C0812F90E020
:1007B0001AD1009719F0C70164DFC8C0153241F49F
:1007C000F201B3FC3591B3FE31912F01353251F472
:1007D000C7011CD197FDC6C0181709F4B7C0B701EF
:1007E0001AD2C5C03A3211F010E006C0B3FC359100
:1007F000B3FE31912F0111E0AA240EC012606A2DC0
:1008000070E080E090E040E20EDFA62EF201B3FC43
:100810003591B3FE31912F01232F20532A3070F3ED
:1008200011FD03C0AA24AA9403C0AA2009F49FC002
:10083000383619F03C3689F409C0F201B3FC359121
:10084000B3FE31912F01383641F418601460F20183
:10085000B3FC3591B3FE31912F01332309F487C0E6
:100860008DE390E0632F70E03983C5D03981009724
:1008700009F47DC0812F10FF03C08824992407C08C
:10088000F6018080918042E050E0C40ED51E3E36D5
:1008900049F4F7014681578160E070E0C401212FDF
:1008A000B6DE54C0333689F481FD02C0AA24A39475
:1008B000C701ACD097FD56C08114910419F0F40122
:1008C00081934F01AA94A1F73FC0C7013983D9DEB4
:1008D000398197FD47C03F3641F1303728F434362F
:1008E00011F1393621F524C0333719F03537F9F4D1
:1008F0001AC0C7018BD03C0197FD0FC074D0009780
:1009000021F0C301B70187D108C08114910419F007
:10091000F40161924F01AA9461F781149104A1F04E
:10092000F401108211C0106203C0106101C0106494
:10093000C7016A2DA401212FBCDE882329F4F70109
:100940008381807379F413C010FF0F5FF701B380C8
:10095000F201B3FC1591B3FE11912F01112309F09F
:1009600025CF05C0002319F40FEF1FEF01C010E0E1
:10097000C8012196E0E11EC02F923F924F925F92F4
:100980006F927F928F929F92AF92BF92CF92DF929F
:10099000EF92FF920F931F93CF93DF93CDB7DEB704
:1009A000CA1BDB0B0FB6F894DEBF0FBECDBF099498
:1009B0002A88398848885F846E847D848C849B84EF
:1009C000AA84B984C884DF80EE80FD800C811B81FD
:1009D000AA81B981CE0FD11D0FB6F894DEBF0FBE2C
:1009E000CDBFED01089591118FC1803219F089506A
:1009F0008550D0F70895FC010590061621F00020DF
:100A0000D9F7C00108953197CF010895CF93DF93AF
:100A1000EC013B8130FF17C036FF09C03F7B3B83B1
:100A20008E819F8101969F838E832A812BC032FF06
:100A300011C0E881F9818081992787FD9095009701
:100A400029F430623B832FEF3FEF1DC03196F983CD
:100A5000E88311C0EA85FB85CE01099597FF0BC09D
:100A60002B813FEF8F3F930711F080E201C080E1BF
:100A7000822B8B83E8CF2E813F812F5F3F4F3F83B7
:100A80002E83282F30E0C901DF91CF910895A0E097
:100A9000B0E0ECE4F5E07ACFEC016A01FA01838181
:100AA00080FF1EC016161706DCF47B010894E108CF
:100AB000F1088E010FC0C601A9DFFFEF8F3F9F072E
:100AC00079F0F80181938F018A30910531F0089413
:100AD000E108F108E114F10471F7F801108202C095
:100AE000C0E0D0E07E01CE01CDB7DEB7E8E06ACF4E
:100AF0000F931F93CF93DF938C01EB018B8181FFC9
:100B00001BC082FF0DC02E813F818C819D812817E3
:100B1000390764F4E881F9810193F983E88306C019
:100B2000E885F985802F0995009731F48E819F81A2
:100B300001969F838E8302C00FEF1FEFC801DF91E4
:100B4000CF911F910F910895A0E0B0E0E9EAF5E0A0
:100B500023CFFE013596619171918091880190912A
:100B60008901AF013BDC2096E2E032CF6091880141
:100B700070918901BDDF0895EF92FF920F931F934B
:100B8000CF93DF938C01E0918801F09189018381FB
:100B900081FF23C0C0E0D0E00EC060918801709159
:100BA0008901DB011896ED91FC9119970995009741
:100BB00011F0CFEFDFEFF80181918F01882369F702
:100BC0006091880170918901DB011896ED91FC918B
:100BD00019978AE00995009711F0CFEFDFEFCE016A
:100BE000CDB7DEB7E6E0F0CEAEE0B0E0E9EFF5E09D
:100BF000D3CE85E08C838B899C899A8389839E01DF
:100C0000295E3F4FCE0101966D897E89A901C1DD24
:100C10002E96E2E0DDCEFB01238120FF13C026FDEE
:100C200011C03FEF8F3F930769F0828320642F7DCF
:100C30002383268137812150304037832683282F14
:100C400030E002C02FEF3FEFC9010895FA01AA2753
:100C5000283051F1203181F1E8946F936E7F6E5FFF
:100C60007F4F8F4F9F4FAF4FB1E03ED0B4E03CD0AD
:100C7000670F781F891F9A1FA11D680F791F8A1F90
:100C8000911DA11D6A0F711D811D911DA11D20D0F7
:100C900009F468943F912AE0269F11243019305DB1
:100CA0003193DEF6CF010895462F4770405D4193A2
:100CB000B3E00FD0C9F7F6CF462F4F70405D4A33EF
:100CC00018F0495D31FD4052419302D0A9F7EACFB7
:100CD000B4E0A6959795879577956795BA95C9F7E6
:100CE00000976105710508959B01AC010A2E0694D9
:100CF0005795479537952795BA95C9F7620F731F92
:100D0000841F951FA01D0895992788270895F8949A
:020D1000FFCF13
:100D12005B725D205265696E6963696172005B6333
:100D22005D2043616E7469646164206465206D6551
:100D3200646963696F6E657320282564290A005B04
:100D4200765D20566F6C6361722076616C6F72659E
:100D520073000A3F20000A286329205B312C2025DA
:100D6200645D203F20002564000A4552524F523AEA
:100D72002025642C2066756572612064652072618D
:100D82006E676F205B312C2025645D0A0025750A91
:100D9200000A204552524F523A206F7063696F6EBB
:100DA20020696E76616C69646100000000030000D6
:0A0DB2000000AD009C0000000A00E4
:00000001FF
