:1000000012C02CC02BC02AC029C028C027C026C0BF
:1000100025C024C023C023C021C020C01FC01EC0D3
:100020001DC01CC01BC011241FBECFE5D4E0DEBF25
:10003000CDBF10E0A0E6B0E0EAE8F0E002C0059035
:100040000D92A036B107D9F710E0A0E6B0E001C0EC
:100050001D92A036B107E1F710D015C0D1CF1F9285
:100060000F920FB60F9211248F938CB18CB98F9190
:100070000F900FBE0F901F9018958FE289B988E9F5
:0A0080008AB97894FFCFF894FFCFFF
:00000001FF
