:1000000002C11CC11BC11AC119C118C117C116C137
:1000100015C114C113C112C111C110C10FC10EC14C
:100020000DC10CC10BC1000000000000005F00000A
:100030000007000700147F147F14242A7F2A12234C
:100040001308646236495522500005030000001C65
:100050002241000041221C00082A1C2A0808083EF0
:100060000808005030000008080808080060600018
:100070000020100804023E5149453E00427F4000E6
:1000800042615149462141454B311814127F1027D6
:10009000454545393C4A494930017109050336490E
:1000A000494936064949291E0036360000005636B1
:1000B00000000008142241141414141441221408DE
:1000C000000201510906324979413E7E1111117E2B
:1000D0007F494949363E414141227F4141221C7FAF
:1000E000494949417F090901013E414151327F0897
:1000F00008087F00417F41002040413F017F0814F4
:1001000022417F404040407F0204027F7F0408106C
:100110007F3E4141413E7F090909063E4151215E32
:100120007F09192946464949493101017F01013FAB
:100130004040403F1F2040201F7F2018207F631435
:100140000814630304780403615149454300007FA8
:100150004141020408102041417F000004020102D5
:1001600004404040404000010204002054545478B0
:100170007F484444383844444420384444487F3815
:1001800054545418087E090102081454543C7F0842
:1001900004047800447D40002040443D00007F106E
:1001A000284400417F40007C041804787C08040443
:1001B0007838444444387C14141408081414187C07
:1001C0007C080404084854545420043F4440203C14
:1001D0004040207C1C2040201C3C4030403C4428B7
:1001E0001028440C5050503C4464544C4400083691
:1001F000410000007F0000004136080008082A1C6A
:1002000008081C2A080811241FBECFE5D4E0DEBF71
:10021000CDBF10E0A0E6B0E0E0E8F3E002C005905A
:100220000D92AA36B107D9F710E0AAE6B0E001C0F6
:100230001D92AA36B107E1F702D0A0C0E1CE8F929D
:100240009F92AF92BF92CF92DF92EF92FF920F9365
:100250001F93DF93CF93CDB7DEB729970FB6F894EE
:10026000DEBF0FBECDBF87E084BB8FE787BBDE015B
:100270001196E0E6F0E089E001900D928150E1F7FF
:1002800020E030E08824839462E0962E44E05E0112
:100290000894A11CB11C55E0E52E90E5C92E93EC05
:1002A000D92E8FE7F82E3CC02115310579F485B39E
:1002B000882585BB85B3892585BB85B3842785BB08
:1002C00085B3882585BB0FEF1FEF06C085B3892551
:1002D00085BB85B3842785BB85B3892585BB85B35D
:1002E000842785BBC90165E070E021D0BC0100977F
:1002F00011F40F5F1F4FD501A00FB11F8C918E9D80
:10030000C0011124860F971F8A579040FC018491E9
:10031000809588BBC6010197F1F7F8BA2F5F3F4F70
:10032000283231050CF4C0CF20E030E0C0CF97FB7D
:10033000092E07260AD077FD04D00CD006D0002065
:100340001AF4709561957F4F0895F6F79095819511
:100350009F4F0895AA1BBB1B51E107C0AA1FBB1FDB
:10036000A617B70710F0A61BB70B881F991F5A9541
:10037000A9F780959095BC01CD010895F894FFCF21
:0A0380004C656F205075746F00008B
:00000001FF
