:1000000012C02CC02BC02AC029C028C027C026C0BF
:1000100025C024C023C022C021C020C01FC01EC0D4
:100020001DC01CC01BC011241FBECFE5D4E0DEBF25
:10003000CDBF10E0A0E6B0E0E0EEF1E002C0059038
:100040000D92AE37B107D9F710E0AEE7B0E001C0CE
:100050001D92AE37B107E1F702D0C0C0D1CF8CE01E
:1000600054D04DD080E690E0A1D08FE690E09ED0B5
:1000700080E090E00895662311F0949A01C094986E
:10008000959894B39F6094BB95B3907F282F229549
:100090002F70292B25BB969A00C096988F70892BBC
:1000A00085BB969A00C096989F6095BB08959498DA
:1000B000959A84B3807F84BB969A00C083B3969848
:1000C00000C0969A00C093B39F708295807F9698E7
:1000D000892B0895ECDF87FDFDCF00C0E8DF089590
:1000E0001F93182FF7DF812F60E0C5DF1F91089560
:1000F000662311F4805801C08054F2DF089581E036
:10010000EFDF089582E0ECDF08951F93182F84B38A
:100110008F6084BB8C9A8D9A8E9A80EA9FE00197BB
:10012000F1F7A99AA89A969A00C0969880EE94E062
:100130000197F1F7969A00C0969880E190E0FC0153
:100140003197F1F7969A00C09698FC013197F1F734
:10015000A898969A00C096980197F1F788E2C0DFB8
:1001600088E0BEDFCCDF86E0BBDF812FB9DF1F91E7
:1001700008951F93182FAEDF812F61E07CDF1F9160
:100180000895A8DF90E008951F93182FA3DF1A3079
:1001900041F4803410F080E001C080E48058A0DF9A
:1001A00003C0812F61E067DF1F910895CF93DF9334
:1001B000EC0101C0E9DF89918823E1F7DF91CF915C
:1001C0000895CF93DF93EC0101C0DEDFFE0121969D
:1001D00084918823D1F7DF91CF910895F894FFCFD0
:1001E000486F6C61207669746568203A290A00427C
:0E01F00075656E6F2063686175203A28000007
:00000001FF
