:1000000021C03BC03AC039C038C037C036C035C047
:1000100034C033C032C031C030C02FC02EC02DC05C
:100020002CC02BC02AC000000800000200000010F5
:1000300002000800202200000022220008002222E4
:100040000022002211241FBECFE5D4E0DEBFCDBFC9
:1000500010E0A0E6B0E0EEEFF0E002C005900D92F7
:10006000A036B107D9F710E0A0E6B0E001C01D92BC
:10007000A036B107E1F702D040C0C2CF0F931F9363
:10008000CF93DF938FE184BB8FE781BB80E090E06B
:1000900001E010E0CAEFD0E024C015BAD801042E68
:1000A00002C0AA0FBB1F0A94E2F7A5BBA491A095BA
:1000B000A2BBDE011197F1F74F5F5F4F31964530DC
:1000C000510559F76F5F7F4F6C33710521F0F901CE
:1000D00040E050E0E2CF01968630910514F080E0D8
:1000E00090E09C01220F331F220F331F280F391F6E
:0E00F00060E070E02A5D3F4FEACFF894FFCF4A
:00000001FF
